:1000000060C0000079C0000077C0000084C3000019
:1000100082C3000080C300006FC000006DC00000FC
:100020006BC0000069C0000067C0000065C0000030
:1000300063C0000061C000005FC000005DC0000040
:100040002BC2000059C0000057C0000055C000007E
:1000500053C0000051C000004FC000004DC0000060
:100060004BC0000049C00000000000080002010071
:100070000003040700000000000000000102040863
:100080001020408001020408102001020408102002
:10009000040404040404040402020202020203032E
:1000A00003030303000000002300260029000000D2
:1000B0000000250028002B0000000000240027007D
:1000C0002A0011241FBECFEFD8E0DEBFCDBF11E064
:1000D000A0E0B1E0E0E9FAE002C005900D92A432A0
:1000E000B107D9F721E0A4E2B1E001C01D92A13728
:1000F000B207E1F79BD1CAC483CF24E031E0FC0111
:1001000021933193CF0181C3CF93DF93EC01F5DFCE
:10011000CE01DF91CF910C940000FC018081918190
:1001200081349105E8F30C94000061347105E8F323
:100130000C9400008F929F92AF92BF92CF92DF9269
:10014000EF92FF920F931F93CF93DF9300D0CDB721
:10015000DEB76C018B015A01DC0112968D919C91E6
:1001600013972D913C91821B930B9C0111F421E07C
:1001700030E07901E80EF91EE816F90620F0E114E6
:10018000F10421F40AC0EE24EA94FE2CFA82E982FA
:10019000CE010196C2DF4C0102C0812C912CF601E8
:1001A00060817181061B170B39F0A801C40165D469
:1001B000FC01E00FF11F01C0F401D5018C913097D3
:1001C00009F080838F010F5F1F4FF60180819181BD
:1001D00064817581681B790B009709F0A6DFD60151
:1001E00011969C928E9213961C930E931297E80C84
:1001F000F91C1596FC92EE9214970F900F90DF91D8
:10020000CF911F910F91FF90EF90DF90CF90BF9013
:10021000AF909F908F900895CF93DF93CDB7DEB7C7
:10022000A1970FB6F894DEBF0FBECDBF84E091E07A
:100230009A83898320E042E061E0CE01039639D3BE
:10024000CE0101965ADFA1960FB6F894DEBF0FBE1D
:10025000CDBFDF91CF9108950895CF93DF931F9283
:10026000CDB7DEB7FC01DB016281738184819581AA
:100270006817790761F08C916115710511F0DB0148
:100280008C938281938101969383828310C0AD0108
:10029000CF0120813181A217B30740F0A617B7071D
:1002A00028F42C912983AE014F5F5F4F43DF0F90FD
:1002B000DF91CF910895029695C14F925F926F9210
:1002C0007F928F929F92AF92BF92CF92DF92EF92E6
:1002D000FF920F931F93CF93DF931F92CDB7DEB79B
:1002E0007C0128013901FC011182108213821282E3
:1002F000158214826B01F2E0CF0ED11CC60151D1E0
:10030000AC01990F660B770B812C912C540184144E
:100310009504A604B704C1F04F3FEFEF5E076E07E8
:100320007E0791F04983BE016F5F7F4FC70195DF64
:100330008FEF881A980AA80AB80AC60132D1AC0110
:10034000990F660B770BE3CFC7010F90DF91CF9129
:100350001F910F91FF90EF90DF90CF90BF90AF90E3
:100360009F908F907F906F905F904F900895AF9285
:10037000BF92CF92DF92EF92FF920F931F93CF9392
:10038000DF9300D000D01F92CDB7DEB78C01FC0107
:10039000118210821382128215821482C12CD12CF8
:1003A00076015B01F2E0AF0EB11CC216D306E40683
:1003B000F506B1F0C5012A833B834C835D83F1D000
:1003C0008983BE016F5F7F4FC80147DF8FEFC81A77
:1003D000D80AE80AF80A5D814C813B812A81E5CF81
:1003E000C8010F900F900F900F900F90DF91CF9159
:1003F0001F910F91FF90EF90DF90CF90BF90AF9043
:1004000008950296CEC00895029659D1BC01990F65
:10041000880B990B0895FB01208131814281538122
:10042000421B530BB90102960CC008957FD0FDDF2B
:10043000F3DEC0E0D0E010DF2097E9F30E94000077
:10044000FACFCF92DF92EF92FF920F931F93CF9349
:10045000DF936C017A018B01C0E0D0E0CE15DF059F
:1004600089F0D8016D918D01D601ED91FC9101903B
:10047000F081E02DC6010995892B11F47E0102C09F
:100480002196ECCFC701DF91CF911F910F91FF9083
:10049000EF90DF90CF9008951F920F920FB60F92BA
:1004A00011242F933F938F939F93AF93BF9380918A
:1004B000250190912601A0912701B091280130914A
:1004C000240123E0230F2D3720F40196A11DB11D37
:1004D00005C026E8230F0296A11DB11D209324011B
:1004E0008093250190932601A0932701B0932801C2
:1004F0008091290190912A01A0912B01B0912C01AA
:100500000196A11DB11D8093290190932A01A0930A
:100510002B01B0932C01BF91AF919F918F913F918F
:100520002F910F900FBE0F901F901895789484B55F
:10053000826084BD84B5816084BD85B5826085BDDF
:1005400085B5816085BDEEE6F0E0808181608083C5
:10055000E1E8F0E0108280818260808380818160A8
:100560008083E0E8F0E0808181608083E1EBF0E06F
:10057000808184608083E0EBF0E080818160808313
:10058000EAE7F0E0808184608083808182608083FC
:100590008081816080838081806880831092C10027
:1005A000089520916F013091700128173907B9F42F
:1005B00090912D0180912E01981789F0E0912D01E5
:1005C000F0E0E15DFE4F808120912D0130E02F5F52
:1005D0003F4F2F73332720932D0190E008958FEF25
:1005E0009FEF08951F93CF93DF93DC015C962D91CD
:1005F0003C915D972115310539F481E090E0139627
:100600009C938E9312973DC05196ED91FC91529719
:1006100050969C915097892F80951FB75E964C916C
:100620005E9741FB772770F941FD6095F894408112
:10063000772311F0492B01C048234083E90121971A
:10064000F1F748E0508160FF02C0592B01C05823E8
:100650005083E9012197F1F76695415099F7772387
:1006600021F090818923808303C08081982B90831F
:100670001FBF5C968D919C915D970197F1F721E0EA
:1006800030E0C901DF91CF911F9108950895209125
:100690006F01309170012817390771F490912D0185
:1006A00080912E01981741F0E0912D01F0E0E15D7D
:1006B000FE4F808190E008958FEF9FEF0895209185
:1006C0006F01309170012817390761F480912E0174
:1006D00020912D0190E0805C9F4F821B910960E486
:1006E00070E0A4C180E090E00895E0916F01F09186
:1006F0007001E817F90769F4A389B4899C91858989
:10070000809589238C931092700110926F0181E083
:10071000089580E008951F920F920FB60F92112452
:100720002F933F934F935F936F937F938F939F93F9
:10073000AF93BF93EF93FF93E0916F01F09170013E
:10074000309709F451C0968DA685B785858591FFB0
:1007500004C09C91892329F447C09C91892309F006
:1007600043C0A389B4899C918589809589238C9302
:10077000868997890197F1F7608D718DA685B78578
:10078000558538E020E0CB010197F1F7822F90E00A
:1007900095958795282F4C91452309F02068315075
:1007A00091F7868D81FD209580912E0190E0019634
:1007B0008F73992730912D01381749F0A0912E01A0
:1007C000B0E0A15DBE4F2C9380932E0103C0868DB7
:1007D0008160868F828D938D0197F1F7A389B4890B
:1007E0009C918589892B8C93FF91EF91BF91AF915B
:1007F0009F918F917F916F915F914F913F912F9139
:100800000F900FBE0F901F90189528E131E0FC016A
:10081000318320836ACF1F93CF93DF93EC01162F90
:100820006E8D6695617081E06827812FD0D061E080
:10083000812F91D0612F70E0FB01E458FF4FE491CC
:10084000E88BFB01E057FF4FE491F0E0EE0FFF1F54
:10085000E255FF4F859194919A8B898BDF91CF91CF
:100860001F9108951F93CF93DF93EC01162F60E043
:10087000812F71D08E8D81FD03C061E0812FA7D0C3
:100880001C87612F70E0FB01E458FF4FE491ED8776
:10089000FB01E057FF4FE491F0E0EE0FFF1FEC5536
:1008A000FF4F859194919F878E87DF91CF911F9104
:1008B00008951F93CF93DF93EC01162F1B821A82AA
:1008C00088EE93E0A0E0B0E08C839D83AE83BF838D
:1008D00088E191E0998388831F8A1E8A198E188E79
:1008E0001B8E1A8E1D8E1C8E8E8D8E7F20FB81F9A5
:1008F0008E8F642FCE018FDF612FCE01DF91CF91DC
:100900001F91B0CF833081F028F4813099F082308C
:10091000A1F008958730A9F08830B9F08430D1F47F
:10092000809180008F7D03C0809180008F778093BD
:100930008000089584B58F7702C084B58F7D84BD13
:1009400008958091B0008F7703C08091B0008F7DB3
:100950008093B0000895CF93DF9390E0FC01E458BA
:10096000FF4F2491FC01E057FF4F8491882361F1F0
:1009700090E0880F991FFC01E854FF4FC591D49176
:10098000FC01E255FF4FA591B491611109C09FB7D9
:10099000F8948881209582238883EC912E230BC0C4
:1009A000623061F49FB7F8943881822F8095832359
:1009B0008883EC912E2B2C939FBF06C08FB7F894A1
:1009C000E8812E2B28838FBFDF91CF9108951F934D
:1009D000CF93DF93282F30E0F901E859FF4F84913E
:1009E000F901E458FF4FD491F901E057FF4FC4914A
:1009F000CC23C1F0162F811185DFEC2FF0E0EE0F34
:100A0000FF1FE255FF4FA591B4918FB7F8941111D4
:100A100005C09C91ED2FE095E92302C0EC91ED2BF0
:100A2000EC938FBFDF91CF911F91089597FB072E15
:100A300016F4009406D077FD08D00BD007FC05D043
:100A40003EF4909581959F4F0895709561957F4FE5
:100A50000895AA1BBB1B51E107C0AA1FBB1FA61705
:100A6000B70710F0A61BB70B881F991F5A95A9F757
:100A700080959095BC01CD010895FB01DC0102C079
:100A800001900D9241505040D8F70895F894FFCF4F
:100A9000000000007D00840004020102B7015D0136
:100AA0005B010B0200000000F20221025F03D10291
:040AB00047034603AF
:00000001FF
